{
  "_format": "hh-sol-artifact-1",
  "contractName": "DutchAuctionFactory",
  "sourceName": "contracts/DutchAuctionFactory.sol",
  "abi": [
    {
      "anonymous": false,
      "inputs": [
        {
          "indexed": true,
          "internalType": "address",
          "name": "auctionAddress",
          "type": "address"
        },
        {
          "indexed": true,
          "internalType": "address",
          "name": "seller",
          "type": "address"
        },
        {
          "indexed": true,
          "internalType": "address",
          "name": "token",
          "type": "address"
        }
      ],
      "name": "AuctionDeployed",
      "type": "event"
    },
    {
      "inputs": [],
      "name": "auctionCount",
      "outputs": [
        {
          "internalType": "uint256",
          "name": "",
          "type": "uint256"
        }
      ],
      "stateMutability": "view",
      "type": "function"
    },
    {
      "inputs": [
        {
          "internalType": "uint256",
          "name": "",
          "type": "uint256"
        }
      ],
      "name": "auctions",
      "outputs": [
        {
          "internalType": "address",
          "name": "",
          "type": "address"
        }
      ],
      "stateMutability": "view",
      "type": "function"
    },
    {
      "inputs": [
        {
          "internalType": "address",
          "name": "_token",
          "type": "address"
        },
        {
          "internalType": "uint256",
          "name": "_qty",
          "type": "uint256"
        },
        {
          "internalType": "uint256",
          "name": "_startPrice",
          "type": "uint256"
        },
        {
          "internalType": "uint256",
          "name": "_reservePrice",
          "type": "uint256"
        }
      ],
      "name": "deployAuction",
      "outputs": [
        {
          "internalType": "address",
          "name": "",
          "type": "address"
        }
      ],
      "stateMutability": "nonpayable",
      "type": "function"
    }
  ],
  "bytecode": "0x6080604052348015600f57600080fd5b50612c6a8061001f6000396000f3fe608060405234801561001057600080fd5b50600436106100415760003560e01c80632ad71573146100465780632d695c3714610064578063571a26a014610094575b600080fd5b61004e6100c4565b60405161005b9190610267565b60405180910390f35b61007e60048036038101906100799190610311565b6100ca565b60405161008b9190610387565b60405180910390f35b6100ae60048036038101906100a991906103a2565b610202565b6040516100bb9190610387565b60405180910390f35b60015481565b600080858484876040516100dd90610241565b6100ea94939291906103cf565b604051809103906000f080158015610106573d6000803e3d6000fd5b5090506000819080600181540180825580915050600190039060005260206000200160009091909190916101000a81548173ffffffffffffffffffffffffffffffffffffffff021916908373ffffffffffffffffffffffffffffffffffffffff160217905550600180600082825461017e9190610443565b925050819055508573ffffffffffffffffffffffffffffffffffffffff163373ffffffffffffffffffffffffffffffffffffffff168273ffffffffffffffffffffffffffffffffffffffff167ffb2c2725986f44577f586afcbe4927817646cbb6d4577c65fa7b01581fc1bacf60405160405180910390a480915050949350505050565b6000818154811061021257600080fd5b906000526020600020016000915054906101000a900473ffffffffffffffffffffffffffffffffffffffff1681565b6127bd8061047883390190565b6000819050919050565b6102618161024e565b82525050565b600060208201905061027c6000830184610258565b92915050565b600080fd5b600073ffffffffffffffffffffffffffffffffffffffff82169050919050565b60006102b282610287565b9050919050565b6102c2816102a7565b81146102cd57600080fd5b50565b6000813590506102df816102b9565b92915050565b6102ee8161024e565b81146102f957600080fd5b50565b60008135905061030b816102e5565b92915050565b6000806000806080858703121561032b5761032a610282565b5b6000610339878288016102d0565b945050602061034a878288016102fc565b935050604061035b878288016102fc565b925050606061036c878288016102fc565b91505092959194509250565b610381816102a7565b82525050565b600060208201905061039c6000830184610378565b92915050565b6000602082840312156103b8576103b7610282565b5b60006103c6848285016102fc565b91505092915050565b60006080820190506103e46000830187610378565b6103f16020830186610258565b6103fe6040830185610258565b61040b6060830184610258565b95945050505050565b7f4e487b7100000000000000000000000000000000000000000000000000000000600052601160045260246000fd5b600061044e8261024e565b91506104598361024e565b925082820190508082111561047157610470610414565b5b9291505056fe608060405234801561001057600080fd5b506040516127bd3803806127bd833981810160405281019061003291906101ef565b818311610074576040517f08c379a000000000000000000000000000000000000000000000000000000000815260040161006b906102d9565b60405180910390fd5b600081116100b7576040517f08c379a00000000000000000000000000000000000000000000000000000000081526004016100ae90610345565b60405180910390fd5b836000806101000a81548173ffffffffffffffffffffffffffffffffffffffff021916908373ffffffffffffffffffffffffffffffffffffffff16021790555033600160006101000a81548173ffffffffffffffffffffffffffffffffffffffff021916908373ffffffffffffffffffffffffffffffffffffffff16021790555082600281905550816003819055508060048190555050505050610365565b600080fd5b600073ffffffffffffffffffffffffffffffffffffffff82169050919050565b60006101868261015b565b9050919050565b6101968161017b565b81146101a157600080fd5b50565b6000815190506101b38161018d565b92915050565b6000819050919050565b6101cc816101b9565b81146101d757600080fd5b50565b6000815190506101e9816101c3565b92915050565b6000806000806080858703121561020957610208610156565b5b6000610217878288016101a4565b9450506020610228878288016101da565b9350506040610239878288016101da565b925050606061024a878288016101da565b91505092959194509250565b600082825260208201905092915050565b7f5374617274207072696365206d75737420626520686967686572207468616e2060008201527f7265736572766500000000000000000000000000000000000000000000000000602082015250565b60006102c3602783610256565b91506102ce82610267565b604082019050919050565b600060208201905081810360008301526102f2816102b6565b9050919050565b7f4d757374206861766520746f6b656e7320746f2073656c6c0000000000000000600082015250565b600061032f601883610256565b915061033a826102f9565b602082019050919050565b6000602082019050818103600083015261035e81610322565b9050919050565b612449806103746000396000f3fe60806040526004361061014f5760003560e01c8063b436a838116100b6578063db2e1eed1161006f578063db2e1eed14610483578063eb91d37e146104ae578063ee7a1163146104d9578063f1a9af8914610504578063fc0c546a1461052f578063fe67a54b1461055a5761018f565b8063b436a83814610383578063b57abd1e146103ae578063be9a6555146103d9578063c87da02d146103f0578063cff29dfd1461041b578063dac6270d146104585761018f565b806362ea82db1161010857806362ea82db1461028357806378e97925146102c05780637e1c0c09146102eb5780638643337414610316578063940bb34414610341578063a271e525146103585761018f565b806308551a53146101ca5780631998aeef146101f55780631f2698ab146101ff57806324600fc31461022a57806332a0f2d71461024157806348c54b9d1461026c5761018f565b3661018f576040517f08c379a00000000000000000000000000000000000000000000000000000000081526004016101869061178c565b60405180910390fd5b6040517f08c379a00000000000000000000000000000000000000000000000000000000081526004016101c1906117f8565b60405180910390fd5b3480156101d657600080fd5b506101df610571565b6040516101ec9190611859565b60405180910390f35b6101fd610597565b005b34801561020b57600080fd5b50610214610886565b604051610221919061188f565b60405180910390f35b34801561023657600080fd5b5061023f610899565b005b34801561024d57600080fd5b50610256610aba565b60405161026391906118c3565b60405180910390f35b34801561027857600080fd5b50610281610ac0565b005b34801561028f57600080fd5b506102aa60048036038101906102a5919061190f565b610f75565b6040516102b791906118c3565b60405180910390f35b3480156102cc57600080fd5b506102d5610f8d565b6040516102e291906118c3565b60405180910390f35b3480156102f757600080fd5b50610300610f93565b60405161030d91906118c3565b60405180910390f35b34801561032257600080fd5b5061032b610f99565b604051610338919061188f565b60405180910390f35b34801561034d57600080fd5b50610356610fac565b005b34801561036457600080fd5b5061036d611216565b60405161037a91906118c3565b60405180910390f35b34801561038f57600080fd5b5061039861121c565b6040516103a591906118c3565b60405180910390f35b3480156103ba57600080fd5b506103c3611222565b6040516103d091906118c3565b60405180910390f35b3480156103e557600080fd5b506103ee611228565b005b3480156103fc57600080fd5b506104056113b5565b60405161041291906118c3565b60405180910390f35b34801561042757600080fd5b50610442600480360381019061043d9190611968565b6113c2565b60405161044f9190611859565b60405180910390f35b34801561046457600080fd5b5061046d611401565b60405161047a91906118c3565b60405180910390f35b34801561048f57600080fd5b50610498611461565b6040516104a591906118c3565b60405180910390f35b3480156104ba57600080fd5b506104c3611467565b6040516104d091906118c3565b60405180910390f35b3480156104e557600080fd5b506104ee61152c565b6040516104fb91906118c3565b60405180910390f35b34801561051057600080fd5b50610519611532565b60405161052691906118c3565b60405180910390f35b34801561053b57600080fd5b50610544611538565b60405161055191906119f4565b60405180910390f35b34801561056657600080fd5b5061056f61155c565b005b600160009054906101000a900473ffffffffffffffffffffffffffffffffffffffff1681565b600660009054906101000a900460ff166105e6576040517f08c379a00000000000000000000000000000000000000000000000000000000081526004016105dd90611a5b565b60405180910390fd5b600660019054906101000a900460ff1615610636576040517f08c379a000000000000000000000000000000000000000000000000000000000815260040161062d90611ac7565b60405180910390fd5b6104b06005546106469190611b16565b4210610687576040517f08c379a000000000000000000000000000000000000000000000000000000000815260040161067e90611b96565b60405180910390fd5b600034116106ca576040517f08c379a00000000000000000000000000000000000000000000000000000000081526004016106c190611c02565b60405180910390fd5b60006106d4611467565b905060035481101561071b576040517f08c379a000000000000000000000000000000000000000000000000000000000815260040161071290611c6e565b60405180910390fd5b6000600b60003373ffffffffffffffffffffffffffffffffffffffff1673ffffffffffffffffffffffffffffffffffffffff16815260200190815260200160002054036107c657600c339080600181540180825580915050600190039060005260206000200160009091909190916101000a81548173ffffffffffffffffffffffffffffffffffffffff021916908373ffffffffffffffffffffffffffffffffffffffff1602179055505b34600b60003373ffffffffffffffffffffffffffffffffffffffff1673ffffffffffffffffffffffffffffffffffffffff16815260200190815260200160002060008282546108159190611b16565b92505081905550346008600082825461082e9190611b16565b925050819055503373ffffffffffffffffffffffffffffffffffffffff167f3fabff0a9c3ecd6814702e247fa9733e5d0aa69e3a38590f92cb18f623a2254d3460405161087b91906118c3565b60405180910390a250565b600660009054906101000a900460ff1681565b600160009054906101000a900473ffffffffffffffffffffffffffffffffffffffff1673ffffffffffffffffffffffffffffffffffffffff163373ffffffffffffffffffffffffffffffffffffffff1614610929576040517f08c379a000000000000000000000000000000000000000000000000000000000815260040161092090611cda565b60405180910390fd5b600660019054906101000a900460ff16610978576040517f08c379a000000000000000000000000000000000000000000000000000000000815260040161096f90611d46565b60405180910390fd5b6000600a5460095461098a9190611d66565b9050600081116109cf576040517f08c379a00000000000000000000000000000000000000000000000000000000081526004016109c690611de6565b60405180910390fd5b80600a60008282546109e19190611b16565b925050819055506000600160009054906101000a900473ffffffffffffffffffffffffffffffffffffffff1673ffffffffffffffffffffffffffffffffffffffff1682604051610a3090611e37565b60006040518083038185875af1925050503d8060008114610a6d576040519150601f19603f3d011682016040523d82523d6000602084013e610a72565b606091505b5050905080610ab6576040517f08c379a0000000000000000000000000000000000000000000000000000000008152600401610aad90611e98565b60405180910390fd5b5050565b60075481565b600660019054906101000a900460ff16610b0f576040517f08c379a0000000000000000000000000000000000000000000000000000000008152600401610b0690611d46565b60405180910390fd5b6000600b60003373ffffffffffffffffffffffffffffffffffffffff1673ffffffffffffffffffffffffffffffffffffffff16815260200190815260200160002054905060008111610b96576040517f08c379a0000000000000000000000000000000000000000000000000000000008152600401610b8d90611f04565b60405180910390fd5b6000600b60003373ffffffffffffffffffffffffffffffffffffffff1673ffffffffffffffffffffffffffffffffffffffff168152602001908152602001600020819055506000600754670de0b6b3a7640000600854610bf69190611f24565b610c009190611f95565b905060006004548211610c3557600754670de0b6b3a764000084610c249190611f24565b610c2e9190611f95565b9050610c53565b60085483600454610c469190611f24565b610c509190611f95565b90505b60008060009054906101000a900473ffffffffffffffffffffffffffffffffffffffff1673ffffffffffffffffffffffffffffffffffffffff166370a08231306040518263ffffffff1660e01b8152600401610caf9190611859565b602060405180830381865afa158015610ccc573d6000803e3d6000fd5b505050506040513d601f19601f82011682018060405250810190610cf09190611fdb565b905080821115610cfe578091505b6000670de0b6b3a764000060075484610d179190611f24565b610d219190611f95565b905060008186610d319190611d66565b90506000841115610e685760008054906101000a900473ffffffffffffffffffffffffffffffffffffffff1673ffffffffffffffffffffffffffffffffffffffff1663a9059cbb33866040518363ffffffff1660e01b8152600401610d97929190612008565b6020604051808303816000875af1158015610db6573d6000803e3d6000fd5b505050506040513d601f19601f82011682018060405250810190610dda919061205d565b610e19576040517f08c379a0000000000000000000000000000000000000000000000000000000008152600401610e10906120d6565b60405180910390fd5b3373ffffffffffffffffffffffffffffffffffffffff167f896e034966eaaf1adc54acc0f257056febbd300c9e47182cf761982cf1f5e43085604051610e5f91906118c3565b60405180910390a25b6000811115610f6d5760003373ffffffffffffffffffffffffffffffffffffffff1682604051610e9790611e37565b60006040518083038185875af1925050503d8060008114610ed4576040519150601f19603f3d011682016040523d82523d6000602084013e610ed9565b606091505b5050905080610f1d576040517f08c379a0000000000000000000000000000000000000000000000000000000008152600401610f1490612142565b60405180910390fd5b3373ffffffffffffffffffffffffffffffffffffffff167fa171b6942063c6f2800ce40a780edce37baa2b618571b11eedd1e69e626e7d7683604051610f6391906118c3565b60405180910390a2505b505050505050565b600b6020528060005260406000206000915090505481565b60055481565b60045481565b600660019054906101000a900460ff1681565b600160009054906101000a900473ffffffffffffffffffffffffffffffffffffffff1673ffffffffffffffffffffffffffffffffffffffff163373ffffffffffffffffffffffffffffffffffffffff161461103c576040517f08c379a000000000000000000000000000000000000000000000000000000000815260040161103390611cda565b60405180910390fd5b600660019054906101000a900460ff1661108b576040517f08c379a000000000000000000000000000000000000000000000000000000000815260040161108290611d46565b60405180910390fd5b60008060009054906101000a900473ffffffffffffffffffffffffffffffffffffffff1673ffffffffffffffffffffffffffffffffffffffff166370a08231306040518263ffffffff1660e01b81526004016110e79190611859565b602060405180830381865afa158015611104573d6000803e3d6000fd5b505050506040513d601f19601f820116820180604052508101906111289190611fdb565b905060008111156112135760008054906101000a900473ffffffffffffffffffffffffffffffffffffffff1673ffffffffffffffffffffffffffffffffffffffff1663a9059cbb61dead836040518363ffffffff1660e01b8152600401611190929190612008565b6020604051808303816000875af11580156111af573d6000803e3d6000fd5b505050506040513d601f19601f820116820180604052508101906111d3919061205d565b611212576040517f08c379a0000000000000000000000000000000000000000000000000000000008152600401611209906121ae565b60405180910390fd5b5b50565b6104b081565b600a5481565b60095481565b600160009054906101000a900473ffffffffffffffffffffffffffffffffffffffff1673ffffffffffffffffffffffffffffffffffffffff163373ffffffffffffffffffffffffffffffffffffffff16146112b8576040517f08c379a00000000000000000000000000000000000000000000000000000000081526004016112af9061221a565b60405180910390fd5b600660009054906101000a900460ff1615611308576040517f08c379a00000000000000000000000000000000000000000000000000000000081526004016112ff90612286565b60405180910390fd5b600660019054906101000a900460ff1615611358576040517f08c379a000000000000000000000000000000000000000000000000000000000815260040161134f906122f2565b60405180910390fd5b6001600660006101000a81548160ff021916908315150217905550426005819055507f1bb96dff6ab5005aff98cdc0cf176bb7d8e0423cb48e02217d35b042cec81e9f6005546040516113ab91906118c3565b60405180910390a1565b6000600c80549050905090565b600c81815481106113d257600080fd5b906000526020600020016000915054906101000a900473ffffffffffffffffffffffffffffffffffffffff1681565b6000600660009054906101000a900460ff16611421576104b0905061145e565b6104b06005546114319190611b16565b4210611440576000905061145e565b426104b06005546114519190611b16565b61145b9190611d66565b90505b90565b60035481565b6000600660009054906101000a900460ff166114b8576040517f08c379a00000000000000000000000000000000000000000000000000000000081526004016114af90611a5b565b60405180910390fd5b6104b06005546114c89190611b16565b42106114d8576003549050611529565b6000600554426114e89190611d66565b905060006104b0826003546002546115009190611d66565b61150a9190611f24565b6115149190611f95565b9050806002546115249190611d66565b925050505b90565b60085481565b60025481565b60008054906101000a900473ffffffffffffffffffffffffffffffffffffffff1681565b600660009054906101000a900460ff166115ab576040517f08c379a00000000000000000000000000000000000000000000000000000000081526004016115a290611a5b565b60405180910390fd5b600660019054906101000a900460ff16156115fb576040517f08c379a00000000000000000000000000000000000000000000000000000000081526004016115f29061235e565b60405180910390fd5b6000611605611467565b9050600081670de0b6b3a76400006008546116209190611f24565b61162a9190611f95565b9050600060045482101590506104b06005546116469190611b16565b421015806116515750805b611690576040517f08c379a0000000000000000000000000000000000000000000000000000000008152600401611687906123ca565b60405180910390fd5b6001600660016101000a81548160ff02191690831515021790555082600781905550600060045483116116c357826116c7565b6004545b9050670de0b6b3a764000084826116de9190611f24565b6116e89190611f95565b6009819055507fe536ac546f86787f3ea4069f79235c6b5a681e87d051300a3ed19a6ebb0db71c600754826040516117219291906123ea565b60405180910390a150505050565b600082825260208201905092915050565b7f5573652062696428290000000000000000000000000000000000000000000000600082015250565b600061177660098361172f565b915061178182611740565b602082019050919050565b600060208201905081810360008301526117a581611769565b9050919050565b7f4e6f20737563682066756e6374696f6e00000000000000000000000000000000600082015250565b60006117e260108361172f565b91506117ed826117ac565b602082019050919050565b60006020820190508181036000830152611811816117d5565b9050919050565b600073ffffffffffffffffffffffffffffffffffffffff82169050919050565b600061184382611818565b9050919050565b61185381611838565b82525050565b600060208201905061186e600083018461184a565b92915050565b60008115159050919050565b61188981611874565b82525050565b60006020820190506118a46000830184611880565b92915050565b6000819050919050565b6118bd816118aa565b82525050565b60006020820190506118d860008301846118b4565b92915050565b600080fd5b6118ec81611838565b81146118f757600080fd5b50565b600081359050611909816118e3565b92915050565b600060208284031215611925576119246118de565b5b6000611933848285016118fa565b91505092915050565b611945816118aa565b811461195057600080fd5b50565b6000813590506119628161193c565b92915050565b60006020828403121561197e5761197d6118de565b5b600061198c84828501611953565b91505092915050565b6000819050919050565b60006119ba6119b56119b084611818565b611995565b611818565b9050919050565b60006119cc8261199f565b9050919050565b60006119de826119c1565b9050919050565b6119ee816119d3565b82525050565b6000602082019050611a0960008301846119e5565b92915050565b7f41756374696f6e206e6f74207374617274656400000000000000000000000000600082015250565b6000611a4560138361172f565b9150611a5082611a0f565b602082019050919050565b60006020820190508181036000830152611a7481611a38565b9050919050565b7f41756374696f6e2068617320656e646564000000000000000000000000000000600082015250565b6000611ab160118361172f565b9150611abc82611a7b565b602082019050919050565b60006020820190508181036000830152611ae081611aa4565b9050919050565b7f4e487b7100000000000000000000000000000000000000000000000000000000600052601160045260246000fd5b6000611b21826118aa565b9150611b2c836118aa565b9250828201905080821115611b4457611b43611ae7565b5b92915050565b7f41756374696f6e2074696d652065787069726564000000000000000000000000600082015250565b6000611b8060148361172f565b9150611b8b82611b4a565b602082019050919050565b60006020820190508181036000830152611baf81611b73565b9050919050565b7f4d7573742073656e642045544820746f20626964000000000000000000000000600082015250565b6000611bec60148361172f565b9150611bf782611bb6565b602082019050919050565b60006020820190508181036000830152611c1b81611bdf565b9050919050565b7f50726963652062656c6f77207265736572766500000000000000000000000000600082015250565b6000611c5860138361172f565b9150611c6382611c22565b602082019050919050565b60006020820190508181036000830152611c8781611c4b565b9050919050565b7f4f6e6c792073656c6c6572000000000000000000000000000000000000000000600082015250565b6000611cc4600b8361172f565b9150611ccf82611c8e565b602082019050919050565b60006020820190508181036000830152611cf381611cb7565b9050919050565b7f41756374696f6e206e6f7420656e646564000000000000000000000000000000600082015250565b6000611d3060118361172f565b9150611d3b82611cfa565b602082019050919050565b60006020820190508181036000830152611d5f81611d23565b9050919050565b6000611d71826118aa565b9150611d7c836118aa565b9250828203905081811115611d9457611d93611ae7565b5b92915050565b7f4e6f7468696e6720746f20776974686472617700000000000000000000000000600082015250565b6000611dd060138361172f565b9150611ddb82611d9a565b602082019050919050565b60006020820190508181036000830152611dff81611dc3565b9050919050565b600081905092915050565b50565b6000611e21600083611e06565b9150611e2c82611e11565b600082019050919050565b6000611e4282611e14565b9150819050919050565b7f5769746864726177616c206661696c6564000000000000000000000000000000600082015250565b6000611e8260118361172f565b9150611e8d82611e4c565b602082019050919050565b60006020820190508181036000830152611eb181611e75565b9050919050565b7f4e6f2062696420706c6163656400000000000000000000000000000000000000600082015250565b6000611eee600d8361172f565b9150611ef982611eb8565b602082019050919050565b60006020820190508181036000830152611f1d81611ee1565b9050919050565b6000611f2f826118aa565b9150611f3a836118aa565b9250828202611f48816118aa565b91508282048414831517611f5f57611f5e611ae7565b5b5092915050565b7f4e487b7100000000000000000000000000000000000000000000000000000000600052601260045260246000fd5b6000611fa0826118aa565b9150611fab836118aa565b925082611fbb57611fba611f66565b5b828204905092915050565b600081519050611fd58161193c565b92915050565b600060208284031215611ff157611ff06118de565b5b6000611fff84828501611fc6565b91505092915050565b600060408201905061201d600083018561184a565b61202a60208301846118b4565b9392505050565b61203a81611874565b811461204557600080fd5b50565b60008151905061205781612031565b92915050565b600060208284031215612073576120726118de565b5b600061208184828501612048565b91505092915050565b7f546f6b656e207472616e73666572206661696c65640000000000000000000000600082015250565b60006120c060158361172f565b91506120cb8261208a565b602082019050919050565b600060208201905081810360008301526120ef816120b3565b9050919050565b7f526566756e64206661696c656400000000000000000000000000000000000000600082015250565b600061212c600d8361172f565b9150612137826120f6565b602082019050919050565b6000602082019050818103600083015261215b8161211f565b9050919050565b7f4275726e206661696c6564000000000000000000000000000000000000000000600082015250565b6000612198600b8361172f565b91506121a382612162565b602082019050919050565b600060208201905081810360008301526121c78161218b565b9050919050565b7f4e6f7420617574686f72697a6564000000000000000000000000000000000000600082015250565b6000612204600e8361172f565b915061220f826121ce565b602082019050919050565b60006020820190508181036000830152612233816121f7565b9050919050565b7f416c726561647920737461727465640000000000000000000000000000000000600082015250565b6000612270600f8361172f565b915061227b8261223a565b602082019050919050565b6000602082019050818103600083015261229f81612263565b9050919050565b7f416c726561647920656e64656400000000000000000000000000000000000000600082015250565b60006122dc600d8361172f565b91506122e7826122a6565b602082019050919050565b6000602082019050818103600083015261230b816122cf565b9050919050565b7f41756374696f6e20616c726561647920656e6465640000000000000000000000600082015250565b600061234860158361172f565b915061235382612312565b602082019050919050565b600060208201905081810360008301526123778161233b565b9050919050565b7f41756374696f6e207374696c6c20616374697665000000000000000000000000600082015250565b60006123b460148361172f565b91506123bf8261237e565b602082019050919050565b600060208201905081810360008301526123e3816123a7565b9050919050565b60006040820190506123ff60008301856118b4565b61240c60208301846118b4565b939250505056fea26469706673582212205eb1c4984b3d5f8c35f6aa16bc9b47ae45cfc6b03661e896b9331592bec8909f64736f6c634300081c0033a26469706673582212202083f41f2a94a16ffe7c13577f9f0c077ce7172dcb17f99a70d6dba61ff421d464736f6c634300081c0033",
  "linkReferences": {},
  "deployedLinkReferences": {}
}